:1000000019C04DC327C033C384C324C023C022C03A
:1000100021C068C91FC01EC050C81CC01BC01AC068
:1000200019C018C017C016C015C014C013C012C024
:1000300011C010C011241FBECFEFD2E0DEBFCDBF74
:1000400021E0A0E0B1E001C01D92AC33B207E1F7BE
:10005000A3D49EC9D5CFCF93DF9300D0CDB7DEB761
:100060009A83898389819A81892B51F08AE290E071
:100070002AE230E0F90120812F7EFC01208309C0B3
:100080008AE290E02AE230E0F90120812061FC015F
:10009000208300000F900F90DF91CF910895CF93B0
:1000A000DF9300D01F92CDB7DEB78A836B8381E0E8
:1000B00090E0D1DF64E08AE00AD164E08A8107D170
:1000C00064E08B8104D164E080E001D1898380E029
:1000D00090E0C1DF00000F900F900F90DF91CF9163
:1000E0000895CF93DF93CDB7DEB780911F01682FBE
:1000F00080E2D5DF80911301682F81E2D0DF65E0D7
:1001000082E2CDDF61E18CE2CADF63E087E2C7DF34
:1001100060E98BE2C4DF6AE08DE2C1DF0000DF91BD
:10012000CF910895CF93DF931F92CDB7DEB781E0D3
:1001300090E091DF64E08BE0CAD064E08DE0C7D04E
:1001400064E080E0C4D0898380E090E084DF89812E
:100150000F90DF91CF910895CF93DF9300D0CDB76B
:10016000DEB79A83898389819A81892B51F08AE24B
:1001700090E02AE230E0F90120812F7DFC0120830C
:1001800009C08AE290E02AE230E0F9012081206291
:10019000FC01208300000F900F90DF91CF91089514
:1001A000CF93DF9300D0CDB7DEB781E090E0D4DF0E
:1001B00061E083EC8CD061E080E089D061E080E098
:1001C00086D0882F90E0982F88279A83898361E0D2
:1001D00080E07DD0882F90E029813A81822B932B7B
:1001E0009A83898361E080E072D0882F90E0982F15
:1001F000882790931E0180931D0161E080E067D005
:10020000282F30E080911D0190911E01822B932BAD
:1002100090931E0180931D0180E090E09DDF80910E
:100220001201882F90E09C0120523109C901880FEA
:10023000991F82959295907F9827807F9827820FAB
:10024000931F880F991F820F931F9C012150324DDD
:1002500089819A81A901481B590B80913401882F0B
:1002600090E09C012D5C3F4FCA01B9016AD8CB01D7
:100270004E9690931C0180931B0100000F900F90ED
:10028000DF91CF910895CF93DF9300D0CDB7DEB744
:100290009A83898389819A81892B51F08AE290E03F
:1002A0002AE230E0F90120812F77FC01208309C088
:1002B0008AE290E02AE230E0F90120812068FC0126
:1002C000208300000F900F90DF91CF910895CF937E
:1002D000DF9300D0CDB7DEB789836A8381E0809356
:1002E000000184E890E0FC01118210828FE690E02A
:1002F0002FE630E0F90120812260FC01208309C053
:1003000080910001882329F48A81882F90E042D0CF
:100310000AC080EC90E0FC018081882F90E0807220
:100320009927892B69F386EC90E02981FC012083D1
:1003300081E08093000184E890E0FC01118210824A
:100340008FE690E02FE630E0F90120812260FC0189
:10035000208309C080910001882329F48A81882F95
:1003600090E018D006C080EC90E0FC0180818823EA
:100370008CF780910001882321F08A81882F90E0FA
:1003800044D086EC90E0FC0180810F900F90DF91CB
:10039000CF910895CF93DF931F92CDB7DEB78983B6
:1003A0008981882F90E08430910591F08530910506
:1003B0001CF4019739F01EC08031910579F08097C7
:1003C00099F018C0809103018F5F8093030118C0DA
:1003D000809102018F5F8093020112C08091010120
:1003E0008F5F809301010CC0809104018F5F809327
:1003F000040106C0809105018F5F80930501000014
:1004000000000F90DF91CF910895CF93DF931F925B
:10041000CDB7DEB789838981882F90E0843091053C
:1004200079F0853091051CF4019739F012C08031C4
:10043000910549F0809751F00CC0109203010CC057
:100440001092020109C01092010106C0109204012D
:1004500003C010920501000000000F90DF91CF91C2
:100460000895CF93DF93CDB7DEB781E090E00BDF47
:1004700060E181E42CDF60E180E129DF60E180E080
:1004800026DF80E090E0FFDE0000DF91CF9108954D
:10049000CF93DF931F92CDB7DEB7898381E090E0E1
:1004A000F2DE60E180E413DF60E182E110DF60E111
:1004B00089810DDF80E090E0E6DE81E090E0E3DE20
:1004C00060E180E404DF60E184E101DF60E18981D3
:1004D000FEDE80E090E0D7DE00000F90DF91CF914C
:1004E0000895CF93DF9300D0CDB7DEB79A83898389
:1004F00089819A81892B51F082E290E022E230E0FA
:10050000F90120812F7DFC01208309C082E290E067
:1005100022E230E0F90120812062FC01208300000A
:100520000F900F90DF91CF910895CF93DF93CDB7C8
:10053000DEB782E290E022E230E0F901208120681B
:10054000FC01208382E290E022E230E0F901208188
:100550002F7BFC0120830000DF91CF910895CF9382
:10056000DF93CDB7DEB782E290E022E230E0F9011E
:1005700020812064FC01208382E290E022E230E0CE
:10058000F90120812F77FC0120830000DF91CF91BA
:100590000895CF93DF9300D0CDB7DEB79A838983D8
:1005A00089819A81892B31F184E690E024E630E05C
:1005B000F90120812B7FFC0120838DE290E029E06E
:1005C000FC01208389E290E029E230E0F9012081FA
:1005D0002160FC0120838CE490E021E5FC01208374
:1005E00082E290E022E230E0F90120812062FC0109
:1005F000208312C08CE490E02CE430E0F9012081EB
:100600002F7BFC01208384E690E024E630E0F901B2
:1006100020812460FC01208300000F900F90DF9167
:10062000CF910895CF93DF931F92CDB7DEB7898323
:100630008EE490E02981FC0120838DE490E0FC01B0
:1006400080818823D4F700000F90DF91CF91089527
:10065000CF93DF931F92CDB7DEB7898381E0E2DFCE
:100660008981E0DF00000F90DF91CF9108951F9204
:100670000F9200905F000F921124CF93DF9300D070
:10068000CDB7DEB71A82198200000F900F90DF916C
:10069000CF910F9000925F000F901F9018951F92BE
:1006A0000F9200905F000F9211242F933F934F936E
:1006B0005F936F937F938F939F93AF93BF93EF93CA
:1006C000FF93CF93DF93CDB7DEB7809111018823DD
:1006D00059F080910701853539F4F894ECD088E021
:1006E000D7DEBFDE22DF78940000DF91CF91FF914B
:1006F000EF91BF91AF919F918F917F916F915F919A
:100700004F913F912F910F9000925F000F901F909B
:1007100018951F920F9200905F000F9211242F9353
:100720003F938F939F93EF93FF93CF93DF93CDB737
:10073000DEB786E490E0FC0110828CE690E02CE6C7
:1007400030E0F9012081277FFC0120831092140101
:1007500081E080931A0189E08093280110922101A1
:1007600081E0809326018EE690E02EE630E0F901EC
:1007700020812260FC0120830000DF91CF91FF9156
:10078000EF919F918F913F912F910F9000925F0079
:100790000F901F901895CF93DF93CDB7DEB781E20E
:1007A00090E02FEEFC01208385E290E027EFFC0132
:1007B00020830000DF91CF910895CF93DF93CDB7D1
:1007C000DEB788E690E027E0FC0120838BE690E02E
:1007D0002BE630E0F90120812061FC0120838AE2D0
:1007E00090E02AE230E0F90120812064FC012083BE
:1007F00087E290E028E0FC0120838CE690E02CE684
:1008000030E0F90120812860FC0120837894000009
:10081000DF91CF910895CF93DF9300D0CDB7DEB7AE
:1008200089836A8389818093060180910601882FDC
:1008300090E081709927892B21F081E0809320013D
:1008400002C01092200180910601882F90E08270F2
:100850009927892B21F081E08093220102C0109218
:10086000220180910601882F90E084709927892BBE
:1008700021F081E08093180102C01092180180914C
:100880000601882F90E088709927892B21F081E05C
:100890008093110102C01092110100000F900F907F
:1008A000DF91CF910895CF93DF93CDB7DEB70000EE
:1008B000DF91CF910895CF93DF9300D000D000D087
:1008C000CDB7DEB782E290E022E230E0F90120818C
:1008D0002860FC01208381E090E05BDE26DE81E081
:1008E00090E0FFDD80E4B4DE80E090E0FADD81E0BE
:1008F00090E0F7DD82E096DE80E094DE80E092DE3C
:100900001A82198207C080E08DDE89819A81019662
:100910009A83898389819A818F3F9F41A4F380E0E4
:1009200090E0DFDD1CDE80E090E033DE82E290E0EC
:1009300022E230E0F9012081277FFC0120831C8224
:100940001B821CC082E290E022E230E0F90130819B
:1009500021E02327FC0120831E821D8205C08D819A
:100960009E8101969E838D838D819E8180389C40DF
:10097000B4F38B819C8101969C838B838B819C81BA
:10098000069704F3000026960FB6F894DEBF0FBE5C
:10099000CDBFDF91CF910895CF93DF9300D01F9209
:1009A000CDB7DEB7C2DDF7DE7EDF07DF8FEF8093E6
:1009B000060110920701109223011B821092190167
:1009C00010922601109235011092170110920A011F
:1009D000109209011092080110920B0110920C0163
:1009E00086E290E026E230E0F90120812860FC01F7
:1009F000208381E08093240180E1809315018AE2C5
:100A000090E02AE230E0F90120812064FC0120839B
:100A100086E490E0FC01108284E490E022E8FC018E
:100A2000208385E490E021E0FC01208387E490E0CE
:100A300024EBFC01208384E890E0FC011182108209
:100A400080E890E022E8FC01208381E890E021E04A
:100A5000FC01208388E890E024EB30E0FC01318346
:100A6000208382E290E022E230E0F90120812F60D1
:100A7000FC0120831A82198205C089819A8101961E
:100A80009A83898389819A8180389E43B4F382E274
:100A900090E022E230E0F9012081207FFC012083F8
:100AA00080E590E090931C0180931B0185E59AEA14
:100AB00090931E0180931D011092250178948091DE
:100AC0002501813031F41092250181E080931A01D3
:100AD0006FD080910701853591F78CD223DB882F69
:100AE00090E080719927892B41F08091180188232B
:100AF00021F084E080930D01DEDE52DB20911B01AA
:100B000030911C01809137019091380151E082179A
:100B100093070CF050E020911B0130911C01809153
:100B20003A0190913B0141E0281739070CF040E071
:100B3000852F842B8823A1F080912201882381F0C6
:100B400082E080930D0180911B0190911C01109215
:100B50000E0180911B0190911C0180930F01ABDE6F
:100B600020911D0130911E0180913201909133013D
:100B70008217930708F0A3CF80912001882309F4FE
:100B80009ECF81E080930D0180911D0190911E0107
:100B9000992721E009970CF420E0822F80930E0121
:100BA00080911D0190911E0180930F0184DE87CFFB
:100BB000CF93DF9300D000D000D0CDB7DEB78091C7
:100BC0002101813409F067C01A821982109225012F
:100BD00081E08093270100008091250191E0882326
:100BE00009F090E02091140181E0222309F080E0D7
:100BF0008923882389F780912101882F90E0982FFD
:100C000088279A838983109225018091140181306D
:100C100039F4109214011092270185E1C3D108C064
:100C200080912101882F90E0982F88279A838983CB
:100C300000008091250191E0882309F090E0209147
:100C4000140181E0222309F080E08923882389F7B9
:100C50001092250180911401882329F01092270118
:100C600085E1A0D10AC080912101282F30E089813F
:100C70009A81822B932B9A838983809127018823E1
:100C800051F089819A8190933301809332011092BF
:100C9000270184E187D180912101823449F51092A6
:100CA000250100008091250191E0882309F090E062
:100CB0002091140181E0222309F080E08923882318
:100CC00089F71092250180911401813039F4109236
:100CD00014011092270185E165D10AC084E162D137
:100CE00080912101882F90E0909338018093370103
:100CF00080912101833449F51092250100008091F3
:100D0000250191E0882309F090E02091140181E011
:100D1000222309F080E08923882389F71092250196
:100D200080911401813039F410921401109227013E
:100D300085E138D10AC084E135D180912101882F25
:100D400090E09093380180933701809121018434A1
:100D500009F064C01C821B821E821D821092250134
:100D600081E08093360100008091250191E0882385
:100D700009F090E02091140181E0222309F080E045
:100D80008923882389F780912101882F90E09C8313
:100D90008B831092250180911401813039F41092D7
:100DA00014011092360185E1FDD008C08091210127
:100DB000882F90E0982F88279C838B830000809158
:100DC000250191E0882309F090E02091140181E051
:100DD000222309F080E08923882389F710922501D6
:100DE00080911401882329F01092360185E1DAD030
:100DF00006C080912101882F90E09E838D83809191
:100E00003601882359F08B8180931F018D81809357
:100E100013011092360165D984E1C4D0809121017B
:100E2000853461F51092250100008091250191E043
:100E3000882309F090E02091140181E0222309F039
:100E400080E08923882389F710922501809114017D
:100E5000813039F4109214011092270185E1A2D05B
:100E60000DC09091210180910601892B809306018C
:100E70008091060160E0CFDC84E194D08091210173
:100E8000863489F51092250100008091250191E0BA
:100E9000882309F090E02091140181E0222309F0D9
:100EA00080E08923882389F710922501809114011D
:100EB000813039F4109214011092270185E172D02B
:100EC00012C080912101882F90E080959095982FF5
:100ED000809106018923809306018091060160E0DC
:100EE0009ADC84E15FD080912101873481F41092F3
:100EF000250180911D0190911E01892F992752D0C3
:100F000080911D0190911E014DD084E14BD08091C4
:100F10002101883489F41092250180911B01909160
:100F20001C01892F990F990B3DD080911B01909145
:100F30001C0138D084E136D0809121018A3441F4FB
:100F4000109225010CDB85E58093070184E12AD00E
:100F5000809121018C3469F41092250180910D015A
:100F600021D080910E011ED080910F011BD084E111
:100F700019D0809121018B3459F410922501809170
:100F80002301813019F485E10DD002C084E10AD03B
:100F9000000026960FB6F894DEBF0FBECDBFDF91DE
:100FA000CF910895CF93DF931F92CDB7DEB789839A
:100FB0008981809335011092170181E080931A0195
:100FC00081E08093190186E490E0FC0110828EE6B6
:100FD00090E02EE630E0F90120812260FC012083C0
:100FE0000000809119018823E1F700000F90DF9144
:100FF000CF910895CF93DF93CDB7DEB780910A01EB
:10100000853198F080912001882321F4809122017C
:10101000882359F080E480930D0181E080930E01D4
:1010200010920F0181E080932301809109018531A5
:1010300078F080911801882359F080E480930D01A5
:1010400084E080930E0110920F0181E080932301D0
:1010500080910801853178F080911101882359F041
:1010600080E480930D0180E180930E0110920F01C6
:1010700081E08093230180910B01853158F080E459
:1010800080930D0180E280930E0110920F0181E0A8
:101090008093230180910C01853158F080E4809386
:1010A0000D0180E880930E0110920F0181E0809382
:1010B00023010000DF91CF9108951F920F920090BD
:1010C0005F000F9211242F933F934F935F936F9381
:1010D0007F938F939F93EF93FF93CF93DF93CDB73E
:1010E000DEB786E490E0FC0110828AE290E02AE21A
:1010F00030E0F901308120E42327FC012083809136
:101100002601882309F477C080911A01882331F0E1
:1011100080911A01815080931A016DC0809128013D
:10112000882F90E001971816190624F584E290E0C4
:10113000FC018081882F90E088709927959587958C
:10114000959587959595879520912801222F30E0D8
:1011500049E050E0BA01621B730B9B0102C0880F8B
:10116000991F2A95E2F7982F80912101892B80936E
:1011700021013CC0809128018823C1F584E290E0E0
:10118000FC018081882F90E088709927892B71F06D
:1011900081E08093250182E290E022E230E0F901D3
:1011A000308128E02327FC01208303C081E0809365
:1011B00014018EE690E02EE630E0F90120812D7FCB
:1011C000FC0120838CE690E02CE630E0F9012081E0
:1011D0002860FC0120838AE290E02AE230E0F901F5
:1011E00020812064FC012083109226018091280137
:1011F00081508093280180911901882309F45FC0F0
:1012000080911A01813061F410921A0186E290E017
:1012100026E230E0F90120812B7FFC0120834FC0C2
:1012200080911701883028F580913501882F90E052
:1012300020911701222F30E002C0959587952A95BD
:10124000E2F781709927892B51F086E290E026E23F
:1012500030E0F90120812460FC0120832BC086E26C
:1012600090E026E230E0F90120812B7FFC01208311
:1012700021C0809117018830E9F486E290E026E2EF
:1012800030E0F90120812460FC0120838EE690E0AB
:101290002EE630E0F90120812D7FFC0120831092A1
:1012A00019018AE290E02AE230E0F901208120640D
:1012B000FC012083809117018F5F8093170100004C
:1012C000DF91CF91FF91EF919F918F917F916F91DE
:1012D0005F914F913F912F910F9000925F000F907F
:1012E0001F9018951F920F9200905F000F9211248B
:1012F0002F933F938F939F93EF93FF93CF93DF931E
:10130000CDB7DEB784E890E0FC01118210828FE651
:1013100090E02FE630E0F90120812D7FFC01208351
:10132000109210010000DF91CF91FF91EF919F91FA
:101330008F913F912F910F9000925F000F901F901F
:10134000189597FB072E16F4009406D077FD08D069
:101350000BD007FC05D03EF4909581959F4F0895E2
:10136000709561957F4F0895AA1BBB1B51E107C083
:10137000AA1FBB1FA617B70710F0A61BB70B881F25
:10138000991F5A95A9F780959095BC01CD010895B4
:04139000F894FFCFFF
:00000001FF
